:100000000C9434000C94A7010C9451000C945100F2
:100010000C9451000C9451000C9451000C9451001C
:100020000C9451000C9451000C9451000C9451000C
:100030000C9451000C9451000C9451000C945100FC
:100040000C9451000C9451000C9451000C945100EC
:100050000C9451000C9451000C9451000C945100DC
:100060000C9451000C94510011241FBECFEFD8E026
:10007000DEBFCDBF11E0A0E0B1E0E8E7FCE002C0E8
:1000800005900D92A430B107D9F711E0A4E0B1E0DA
:1000900001C01D92A038B107E1F70E94A2010C94A3
:1000A0003A060C94000010926C0110926D011092AF
:1000B0006E019AE590936F011092700184EB80932A
:1000C0007101909372011092730190937401909357
:1000D0007501909376018093770180937801109257
:1000E000790180937A0190937B0180937C018093C6
:1000F0007D0108950E94CE056FEF7FE70E945205B3
:10010000882777FD8095982F0E946304462F572FEC
:10011000682F792FCB01BA010895CF93DF93EC01BB
:100120000E94CE05BE010E945205DF91CF91089535
:1001300080E090E04AE007C011922150E9F7019673
:100140008A30910581F0FC01EE0FFF1F9C01220F08
:10015000331F220F331F220F331FE20FF31FE85FFD
:10016000FE4F242FE9CF0895E82FF0E09F01220FE2
:10017000331FF901EE0FFF1FEE0FFF1FE20FF31FFA
:10018000E85FFE4F682F70E0CB01880F991FBC011C
:10019000660F771F660F771F680F791F6E5E7E4FA1
:1001A0008CE99191482F552747FD5095292F30E034
:1001B000421753070CF4892FE617F70791F70895B4
:1001C000CF93DF93D82F8AE090E00E948D008A3091
:1001D000910504F5ED2FF0E0CF01880F991FFC0188
:1001E000EE0FFF1FEE0FFF1FE80FF91FE85FFE4F36
:1001F00040E06CE95191262F332727FD3095852F5C
:1002000090E02817390714F4652FC42F4F5F4A3048
:1002100089F705C08AE090E00E948D00C82F8C2FDE
:10022000DF91CF9108951F93CF93DF93C82FD62FDF
:100230008091060120917F0190E0821B9109992312
:100240000CF4019695958795182F882309F41BEFD8
:100250008C2F0E94B4006D2F70E0A8E0B1E02C2F2D
:1002600030E0220F331FA901440F551F440F551FC3
:10027000F901E40FF51FE60FF71FEA0FFB1F90814E
:100280002C2F30E0220F331FA901440F551F440FBC
:10029000551F240F351F260F371FA20FB31F191B21
:1002A000880F180F110F910F9C93DF91CF911F9121
:1002B0000895CF92DF92FF920F931F93CF93DF9316
:1002C0000E9498000E94530088E090E00E948D00F8
:1002D000D82FE82FF0E0EE0FFF1FE459FE4FC18149
:1002E00080810E9471038C2F0E94B80308EE13E0F6
:1002F0000F2EFCE6CF2EF1E0DF2EF02D01C0DC2F1B
:100300008D2F0E94E000C82FE82FF0E0EE0FFF1FB6
:10031000EC0DFD1DF1800E9471038F2D0E94B8032A
:100320008D2F6C2F0E94130181E00E9471030150F8
:10033000104029F7DF91CF911F910F91FF90DF902F
:10034000CF9008950E94E8010E945901FFCF1F92AB
:100350000F920FB60F9211242F933F938F939F9379
:1003600089B18470809305019091040190937F017D
:1003700090917E018917F9F08823E9F418B829B122
:1003800030E02870307090E02817390759F08091DC
:10039000040182508093040181E080930701409A18
:1003A000419809C0809104018E5F809304011092EE
:1003B0000701419A409880910401809306019F9122
:1003C0008F913F912F910F900FBE0F901F90189516
:1003D00052988FEF87B988B9E89AE9E6F0E0808112
:1003E00081608083789489B1847080937E010895C0
:1003F000833419F1843409F43DC0823409F056C0C5
:10040000413069F424B181E090E0AC0102C0440FB6
:10041000551F6A95E2F7BA01622B64B9089524B1B9
:1004200081E090E0AC0102C0440F551F6A95E2F7ED
:10043000BA016095622364B90895413069F427B127
:1004400081E090E0AC0102C0440F551F6A95E2F7CD
:10045000BA01622B67B9089527B181E090E0AC0141
:1004600002C0440F551F6A95E2F7BA0160956223F6
:1004700067B90895413069F42AB181E090E0AC0198
:1004800002C0440F551F6A95E2F7BA01622B6AB9A0
:1004900008952AB181E090E0AC0102C0440F551FDD
:1004A0006A95E2F7BA01609562236AB908958334C8
:1004B00019F1843409F43DC0823409F056C041304A
:1004C00069F425B181E090E0AC0102C0440F551FF2
:1004D0006A95E2F7BA01622B65B9089525B181E00A
:1004E00090E0AC0102C0440F551F6A95E2F7BA01D3
:1004F0006095622365B90895413069F428B181E0BF
:1005000090E0AC0102C0440F551F6A95E2F7BA01B2
:10051000622B68B9089528B181E090E0AC0102C077
:10052000440F551F6A95E2F7BA016095622368B9D6
:100530000895413069F42BB181E090E0AC0102C034
:10054000440F551F6A95E2F7BA01622B6BB9089503
:100550002BB181E090E0AC0102C0440F551F6A95B9
:10056000E2F7BA01609562236BB908958334B1F064
:10057000843431F18234B9F523B181E090E0062E64
:1005800002C0880F991F0A94E2F730E08223932378
:1005900002C0959587956A95E2F7089526B181E0A6
:1005A00090E0062E02C0880F991F0A94E2F730E00F
:1005B0008223932302C0959587956A95E2F7089563
:1005C00049B121E030E0062E02C0220F331F0A9409
:1005D000E2F750E024233523C90102C095958795A1
:1005E0006A95E2F7089580E00895833489F08434B1
:1005F000E1F0823431F525B181E090E0AC0102C038
:10060000440F551F6A95E2F7BA01622765B908954C
:1006100028B181E090E0AC0102C0440F551F6A95FB
:10062000E2F7BA01622768B908952BB181E090E042
:10063000AC0102C0440F551F6A95E2F7BA01622768
:100640006BB90895833431F0843431F0823429F465
:1006500064B9089567B908956AB90895833431F08B
:10066000843431F0823429F465B9089568B9089565
:100670006BB90895833431F0843431F0823431F42D
:1006800083B1089586B1089589B1089580E00895F1
:10069000219AE0E8F0E02081206820832081226018
:1006A0002083E1E8F0E02081286020832081206120
:1006B00020832081226020832FE037E2309387005F
:1006C0002093860020E030E04AEF53E40E94EF04DC
:1006D0000E943504DC01CB0190938900809388004F
:1006E0000895882339F460E070E080E89FE30E9479
:1006F00048030895682F70E080E090E00E94610454
:1007000020E030E040E051E40E94EF0420E030E0DF
:1007100044E353E40E94CD030E9448030895219AC4
:10072000E0E8F0E02081206820832081226020839F
:10073000E1E8F0E02081286020832081206120838F
:100740002081226020832FE037E2309387002093BE
:10075000860020E030E04AEF53E40E94EF040E945C
:100760003504DC01CB0190938B0080938A000895BF
:10077000682F70E080E090E00E94610420E030E0AB
:1007800040E051E40E94EF0420E030E044E353E411
:100790000E94CD030E948F0308950CD0E6C0DED0E6
:1007A00040F0D5D030F021F45F3F19F0C7C05111AF
:1007B00010C1CAC0EBD098F39923C9F35523B1F304
:1007C000951B550BBB27AA2762177307840738F0C0
:1007D0009F5F5F4F220F331F441FAA1FA9F333D01F
:1007E0000E2E3AF0E0E830D091505040E695001CD3
:1007F000CAF729D0FE2F27D0660F771F881FBB1F8F
:10080000261737074807AB07B0E809F0BB0B802D68
:10081000BF01FF2793585F4F2AF09E3F510568F0B4
:100820008DC0D7C05F3FECF3983EDCF3869577959B
:100830006795B795F7959F5FC9F7880F911D9695B6
:10084000879597F90895E1E0660F771F881FBB1F12
:10085000621773078407BA0720F0621B730B840BBF
:10086000BA0BEE1F88F7E095089598D088F09F574F
:1008700090F0B92F9927B751A0F0D1F0660F771FEC
:10088000881F991F1AF0BA95C9F712C0B13081F0CC
:100890009FD0B1E008959CC0672F782F8827B85F5C
:1008A00039F0B93FCCF3869577956795B395D9F72D
:1008B0003EF490958095709561957F4F8F4F9F4F37
:1008C0000895E89409C097FB3EF490958095709543
:1008D00061957F4F8F4F9F4F9923A9F0F92F96E98C
:1008E000BB279395F695879577956795B795F11101
:1008F000F8CFFAF4BB0F11F460FF1BC06F5F7F4F9E
:100900008F4F9F4F16C0882311F096E911C07723AF
:1009100021F09EE8872F762F05C0662371F096E8B8
:10092000862F70E060E02AF09A95660F771F881F87
:10093000DAF7880F9695879597F9089597F99F6745
:1009400080E870E060E008959FEF80EC0895002457
:100950000A941616170618060906089500240A9424
:1009600012161306140605060895092E0394000CAA
:1009700011F4882352F0BB0F40F4BF2B11F460FF39
:1009800004C06F5F7F4F8F4F9F4F089557FD905862
:10099000440F551F59F05F3F71F04795880F97FB43
:1009A000991F61F09F3F79F08795089512161306FD
:1009B0001406551FF2CF4695F1DF08C0161617062C
:1009C0001806991FF1CF8695710561050894089561
:1009D000E894BB2766277727CB0197F908950BD0BA
:1009E000C4CFB5DF28F0BADF18F0952309F0A6CF01
:1009F000ABCF1124EECFCADFA0F3959FD1F3950FB3
:100A000050E0551F629FF001729FBB27F00DB11D92
:100A1000639FAA27F00DB11DAA1F649F6627B00D22
:100A2000A11D661F829F2227B00DA11D621F739F0B
:100A3000B00DA11D621F839FA00D611D221F749F19
:100A40003327A00D611D231F849F600D211D822F60
:100A5000762F6A2F11249F5750408AF0E1F08823A7
:100A60004AF0EE0FFF1FBB1F661F771F881F9150B4
:100A70005040A9F79E3F510570F060CFAACF5F3F6D
:100A8000ECF3983EDCF3869577956795B795F795E7
:100A9000E7959F5FC1F7FE2B880F911D969587956F
:100AA00097F9089597FB092E07260AD077FD04D001
:100AB0000CD006D000201AF4709561957F4F0895F0
:100AC000F6F7909581959F4F0895AA1BBB1B51E1A6
:100AD00007C0AA1FBB1FA617B70710F0A61BB70BAE
:100AE000881F991F5A95A9F780959095BC01CD0153
:100AF00008958F929F92AF92BF92CF92DF92EF9222
:100B0000FF92CF93DF93EC0188819981AA81BB8109
:100B10000097A105B10521F484E299EDABE5B7E0BA
:100B2000BC01CD012DE133EF41E050E00E94FD0515
:100B300049015A0127EA31E440E050E00E94DE0515
:100B40006B017C01C501B4012CEE34EF4FEF5FEF78
:100B50000E94DE05DC01CB01C80ED91EEA1EFB1E79
:100B6000F7FE08C08FEF9FEFAFEFBFE7C80ED91EAB
:100B7000EA1EFB1EC882D982EA82FB82C6019F77E9
:100B8000DF91CF91FF90EF90DF90CF90BF90AF902B
:100B90009F908F9008950E947905089580E091E0DC
:100BA0000E9479050895A0E0B0E080930001909341
:100BB0000101A0930201B09303010895629FD00147
:100BC000739FF001829FE00DF11D649FE00DF11D08
:100BD000929FF00D839FF00D749FF00D659FF00DB7
:100BE0009927729FB00DE11DF91F639FB00DE11DA4
:100BF000F91FBD01CF011124089597FB092E052689
:100C00000ED057FD04D014D00AD0001C38F45095F3
:100C10004095309521953F4F4F4F5F4F0895F6F720
:100C200090958095709561957F4F8F4F9F4F089558
:100C3000A1E21A2EAA1BBB1BFD010DC0AA1FBB1FE0
:100C4000EE1FFF1FA217B307E407F50720F0A21B52
:100C5000B30BE40BF50B661F771F881F991F1A94BF
:100C600069F760957095809590959B01AC01BD01E9
:080C7000CF010895F894FFCFB5
:040C78000100000077
:00000001FF
